:100000000C94BF000C94DA000C94DA000C94DA0023
:100010000C94DA000C94DA000C94DA000C94DA00F8
:100020000C94DA000C948D080C94DA000C942D09D1
:100030000C9455090C94DA000C94DA000C94DA0054
:100040000C94DA000C94DA000C94DA000C94DA00C8
:100050000C94DA002A2A2A2A2A0A002A2A2A2A2A78
:1000600020466C6173682D4C45442070726F677236
:10007000616D202D20320A002A2A2A2A2A0A0053DA
:10008000504352203D203078253032780A002053EA
:1000900052532053616D706C6520426F7420005381
:1000A00065636F6E64206C696E65000A0053573A91
:1000B00025303478200025303278200020535253E8
:1000C0002053616D706C6520426F7420005365632E
:1000D0006F6E64206C696E65004A6F793A20256303
:1000E00025632563256325630053313A2564205336
:1000F000323A25642053333A2564004C20253032AF
:10010000782025303278202530327820253032781A
:1001100020253032780045202530327820253032B5
:10012000782020202020422025303278005365742A
:1001300074696E673A2025640020514C3A25642585
:10014000642051523A256425642045432D4C3A25BC
:10015000642045432D523A25640A00526561643A91
:1001600020272563270A0044656275674B65790A75
:1001700000256300476F0A004C43443A20001124D5
:100180001FBECFE5D4E0DEBFCDBF10E0A0E6B0E0FB
:10019000EEEFF3E102C005900D92AA3CB107D9F74A
:1001A00011E0AAECB0E001C01D92AD32B107E1F759
:1001B0000C94E2000C940000CB010E94940981E0B1
:1001C00090E00895CFE5D4E0DEBFCDBFCC24DD24A0
:1001D00056010E94E8038CED90E00E94EF0484E554
:1001E00090E09F938F930E9401050F900F908BE5F5
:1001F00090E09F938F930E9401050F900F9088E7E6
:1002000090E09F938F930E9401050F900F908DB106
:1002100099279F938F938FE790E09F938F930E94EE
:1002200001050E9496040F900F900F900F908EE89A
:1002300090E09F938F930E94180461E070E0C601E4
:100240000E9465040F900F908FE990E09F938F9329
:100250000E9418040F900F908BEA90E09F938F9369
:100260000E940105C49A0F900F9088B390E18927EE
:1002700088BB0894A11CB11C86E0A816B10414F038
:10028000AA24BB246CEF70E08FEF9FEF0E94B803AD
:10029000EC019F938F938DEA90E09F938F930E9440
:1002A00001050F900F900F900F90CC15DD0519F000
:1002B0000E9483046E0100E010E0B9EDEB2EB0E087
:1002C000FB2E802F0E94E302F70181937F01992783
:1002D0009F938F9386EB90E09F938F930E940105ED
:1002E0000F900F900F900F900F5F1F4F0830110568
:1002F00044F3CE01807F9070A4E096958795AA95EF
:10030000E1F78130910519F18130910520F00297D4
:1003100009F486C0D5C060E070E0CB010E9465049E
:100320008CEB90E09F938F930E94180461E070E043
:1003300080E090E00E9465040F900F908DEC90E0BB
:100340009F938F930E9418040F900F90D1C060E08C
:1003500070E0CB010E946504D4FD03C088E590E005
:1003600002C080E290E09F938F93D2FD03C084E4AB
:1003700090E002C080E290E09F938F93D3FD03C092
:1003800085E590E002C080E290E09F938F93D5FDD9
:1003900003C082E590E002C080E290E09F938F93DB
:1003A000D6FD03C08CE490E002C080E290E09F9311
:1003B0008F9389ED90E09F938F930E94180461E0E2
:1003C00070E080E090E00E9465048DB79EB70C96C7
:1003D0000FB6F8949EBF0FBE8DBF80B39927F6E08D
:1003E00096958795FA95E1F721E030E082279327EB
:1003F000822393239F938F938D2F9927822793276F
:10040000822393239F938F93CD2FDD27C695C227F9
:10041000D327C223D323DF93CF9389EE90E043C049
:1004200060E070E0CB010E9465048091DE009927B6
:100430009F938F938091DC0099279F938F93809156
:10044000DB0099279F938F938091DA0099279F93E0
:100450008F938091DD0099279F938F938BEF90E08E
:100460009F938F930E94180461E070E080E090E019
:100470000E9465048DB79EB70C960FB6F8949EBF88
:100480000FBE8DBF8091DF0099279F938F9380913E
:10049000E00099279F938F938091D90099279F938C
:1004A0008F9386E191E09F938F930E941804EDB79C
:1004B000FEB738960FB6F894FEBF0FBEEDBF18C05A
:1004C00060E070E0CB010E946504C07FD07064E002
:1004D000D695C7956A95E1F7DF93CF938DE291E0CA
:1004E0009F938F930E9418040F900F900F900F907E
:1004F00083B380B38091E4009091E5009F938F9344
:100500008091E1009091E2009F938F9383B39927AC
:1005100055E0969587955A95E1F7817090709F9375
:100520008F9380B399279695879596958795817037
:1005300090709F938F9383B39927969587959695FF
:100540008795817090709F938F9380B3992723E054
:10055000969587952A95E1F7817090709F938F9378
:1005600089E391E09F938F930E9401058DB79EB719
:100570000E960FB6F8949EBF0FBE8DBF01E310E03C
:100580000E94210990910C0180910B019817B1F004
:100590000E947C09803219F40E94EE020FC0992754
:1005A00087FD90959F938F938BE591E09F938F9319
:1005B0000E9401050F900F900F900F900150104076
:1005C00017FFDECF52CE97B1907C982B906297B9EF
:1005D000369A3699FECF85B199270895EF92FF920A
:1005E0000F931F93CF93DF9300E010E0780187E62D
:1005F00091E09F938F930E940105B801C8010E946A
:1006000034050F900F9090910C0180910B01981779
:10061000D1F30E947C09EC019F938F9381E791E0D5
:100620009F938F930E9401050F900F900F900F9052
:10063000C236D105F1F0C336D1055CF4C032D10524
:1006400079F0C032D105FCF2CE01C0970A97D8F6F6
:1006500020C0CC36D10581F0C237D10581F0D3CF8F
:1006600084E791E09F938F930E9401050F900F9074
:100670002AC083E090E005C081E090E002C082E003
:1006800090E09093CB008093CA0000E010E07801E6
:10069000BACF8091CA009091CB0080FF07C0FE01C5
:1006A000EC0FFD1FE65CFF4F0081118181FF06C04A
:1006B000CC0FDD1FC65CDF4FE880F980B701C801B1
:1006C0000E943405A0CFDF91CF911F910F91FF9031
:1006D000EF900895009731F0A4E0B0E01197F1F7A2
:1006E0000197D1F70895009731F0A0EABFE0119784
:1006F000F1F70197D1F70895CF93C82F882331F0F0
:1007000084E690E00E946A03C150D1F7CF9108952A
:10071000CF93C82F882331F08AE090E00E946A03CB
:10072000C150D1F7CF910895CF93C82F882331F0CE
:1007300084E690E00E947303C150D1F7CF910895F1
:10074000CF93C82F882331F08AE090E00E94730392
:10075000C150D1F7CF910895CF93C82F882331F09E
:1007600081E090E00E947303C150D1F7CF910895CA
:100770009B01AC0146235723209530958091CE00F4
:100780009091CF0082239323482B592B6FB7F89475
:10079000C09A852F99278FB9779BFECF8FB1282FCD
:1007A0003327322F22274FB9779BFECF8FB199275E
:1007B000282B392BC098C19AC1985093CF004093F1
:1007C000CE003093CD002093CC006FBFC9010895B7
:1007D0001BBA1ABA84E588BB8BEB87BB83EC85BB5D
:1007E00088E184BB80E482BB80E381BB12BC81E5ED
:1007F0008DB910BC89E189B91BB888E98AB98EE83E
:1008000080BD87EC86B986B1877C11F03699FECF22
:100810008FE085BF80E884BF1BBE0E941A0981EA71
:100820008FBD82E08EBD1BBC1ABC19BC18BC0895DC
:10083000EF92FF920F931F93CF93DF93CDB7DEB765
:1008400009E010E00C0F1D1FF801E190F1908F01FD
:1008500088E791E09F938F930E940105B801C7013B
:100860000E94F4049801A70160E070E083ED94E039
:100870000E9431060F900F90DF91CF911F910F9141
:10088000FF90EF90089520E030E0892B11F021E0F7
:1008900030E0862F9927982F882763E07FEF822BFF
:1008A000932B0E94B8030000C39A000000000000D0
:1008B0000000C39881E090E00E94730308956EE009
:1008C00080E090E00E94430408959B01682F6F73BD
:1008D0006068232B09F0606480E090E00E9443048C
:1008E00008956CE080E090E00E944304089568E081
:1008F00080E090E00E94430408956CE080E090E086
:100900000E944304089561E080E090E00E94430467
:1009100085E090E00E94730362E080E090E00E9436
:10092000430482E090E00E94730308951F9384E1E2
:1009300090E00E94730310E3612F80E090E00E943A
:10094000430485E090E00E947303612F80E090E013
:100950000E94430481E090E00E947303612F80E0D5
:1009600090E00E94430481E090E00E94730368E3FA
:1009700080E090E00E9443040E94770466E080E0FB
:1009800090E00E9443040E9483040E947D041F9112
:100990000895009721F06FE080E090E001C06EE0E4
:1009A0000E944304089581E090E00E94430481E0A6
:1009B00090E00895682F81E090E00E94430408953C
:1009C000CF93DF93EC018881882331F089910E94D5
:1009D000DA0488818823D1F7DF91CF91089590932D
:1009E000D1008093D0000895AC019B018091D0008C
:1009F0009091D100009721F060E070E00E943106F4
:100A00000895CF93DF93CDB7DEB7E5E0F0E0EC0FCC
:100A1000FD1F81919191BF010E94F404DF91CF915C
:100A20000895EF92FF920F931F93CF93DF93CDB76B
:100A3000DEB709E010E00C0F1D1FF801E190F19006
:100A40008F018EEB90E09F938F930E940105B80178
:100A5000C7010E94F4040F900F90DF91CF911F9176
:100A60000F91FF90EF9008959C013093D500209353
:100A7000D4007093D3006093D2008091C80090910D
:100A8000C90028173907D9F037FD07C0AB9A8FB5D1
:100A900080618FBD39BD28BD0AC0AB988FB58F7EF0
:100AA0008FBD88279927821B930B99BD88BD8091A4
:100AB000D4009091D5009093C9008093C8002091F4
:100AC000D2003091D3008091C6009091C7002817C2
:100AD0003907B9F037FD07C0AC9A8FB580648FBD78
:100AE0003BBD2ABD0AC0AC988FB58F7B8FBD8827D0
:100AF0009927821B930B9BBD8ABD3093C70020931F
:100B0000C60008951092C9001092C8001092C70044
:100B10001092C60082E090E09093E8008093E70096
:100B200081EA8FBD82E08EBD1BBC1ABC19BC18BC0B
:100B300084B7806884BF85B3886185BB84B38861CE
:100B400084BB81B3806381BB85B3887185BB60E062
:100B500070E0CB010E9434050895CF93DF93EC0140
:100B60008881998197FD0CC0EA85FB858C859D85E0
:100B7000099597FD03C0888199810196998388839F
:100B8000DF91CF910895EF92FF920F931F93CF9330
:100B9000DF93EC017B010C811D8188859985081B01
:100BA000190B8E819F81081B190B8A819B8180FF05
:100BB00009C082FF05C06DE270E0CE010E94AD0564
:100BC000015010408A819B8181FF11C0015010406B
:100BD00017FD0DC08A819B8182FF03C060E370E036
:100BE00002C060E270E0CE010E94AD05EFCF8A81C5
:100BF0009B8180FF07C082FD05C06DE270E0CE01E1
:100C00000E94AD058885998501979987888797FD0A
:100C100003C060E370E0F3CF8E819F8101979F83D3
:100C20008E8397FD0BC0F70181917F01992787FD86
:100C30009095BC01CE010E94AD05EECF0150104051
:100C400017FD08C060E270E0CE010E94AD050150C2
:100C50001040C2F7DF91CF911F910F91FF90EF905D
:100C600008952F923F924F925F926F927F928F9250
:100C70009F92AF92BF92CF92DF92EF92FF920F932B
:100C80001F93CF93DF93CDB7DEB7E4970FB6F894F9
:100C9000DEBF0FBECDBF5A0139011A8219829C876F
:100CA0008B877E876D87FA010894A11CB11C649123
:100CB000662309F4B6C185010F5F1F4F653209F045
:100CC000A3C1EFEF2E2E3E2E20E030E0A901F5016A
:100CD000580164913E832D833A87298782E090E012
:100CE0009C838B836D3239F43C832B830894A11C45
:100CF000B11CF8016491603351F48B819C81846054
:100D00009C838B83F5010894A11CB11C64916A3209
:100D100079F4F30122E030E0620E731E808191814C
:100D20009E838D83F5010894A11CB11C649123C09E
:100D3000862F80538A30F8F42D813E81C90173E0FB
:100D4000880F991F7A95E1F7820F931F280F391F9B
:100D5000862F992787FD9095280F391F2053304003
:100D6000F5010894A11CB11C6491862F80538A3030
:100D700028F33E832D836E32A1F5F5010894A11C62
:100D8000B11C64916A3269F4F30182E090E0680E6C
:100D9000791E20803180F5010894A11CB11C64915A
:100DA00020C022243324862F80538A30D0F4C101FE
:100DB00023E0880F991F2A95E1F7820D931D280ED5
:100DC000391E862F992787FD9095280E391EA0ED94
:100DD000BFEF2A0E3B1EF5010894A11CB11C6491C3
:100DE000E2CF6C3631F441E050E0F501A40EB51EBF
:100DF0006491643679F0683719F420E130E038C046
:100E0000683531F420E130E08B819C81886016C028
:100E1000653719F42AE030E02BC06F3619F428E06A
:100E200030E026C0623619F422E030E021C063369B
:100E300041F42FEF3FEF8B819C818B7F9C838B83D1
:100E400017C0633719F42EEF3FEFF5CF662309F48F
:100E50002FCF862F992787FD9095BC01CE01019653
:100E60000E94AD05F5010894A11CB11C649120CF2E
:100E7000BFEF2F3F3B0779F4F30122E030E0620E31
:100E8000731E808188AB81E090E098878F83BE01DC
:100E9000605D7F4FAFC08FEF2E3F3807F1F4F30155
:100EA000A2E0B0E06A0E7B1EA081B18118861F828D
:100EB0008C91882381F037FC05C08F81988582153D
:100EC00093054CF4EF81F8853196F887EF83EA0FAC
:100ED000FB1F8081EECFBD018DC018861F82452B80
:100EE00051F0F30184E090E0680E791EE080F1801B
:100EF0000281138115C0C3010296643651F4F301D7
:100F00003C01808191817C010027F7FC0095102F26
:100F100009C0F3013C01808191817C0100271127E8
:100F2000643679F417FF0DC08B819C8181609C83AE
:100F30008B8310950095F094E094E11CF11C011D49
:100F4000111DC901AA2797FDA095BA2F89AB9AABAD
:100F5000ABABBCAB4B805C8098E0492255248F80C2
:100F60009884C801B70129A93AA94BA95CA90E9494
:100F7000DD099B01205D3F4F2A3331054CF04114C0
:100F8000510421F09B01295C3F4F02C0295D3F4F76
:100F9000E0E2F0E0E819F909A1E0B0E0AC0FBD1F14
:100FA000EA0FFB1F268764010894C11CD11C46016F
:100FB000C801B70129A93AA94BA95CA90E94DD097A
:100FC00079018A01211531054105510551F6D8866F
:100FD000CF8237FC07C0C214D30424F42C183D0878
:100FE0003A8629868F819885FE01E81BF90BCF018F
:100FF000C096BC01CE0101960E94C305F50108947C
:10100000A11CB11C649154CE862F992787FD909521
:10101000BC01CE0101960E94AD05F5015801649115
:1010200047CE89819A81E4960FB6F894DEBF0FBE51
:10103000CDBFDF91CF911F910F91FF90EF90DF9087
:10104000CF90BF90AF909F908F907F906F905F9068
:101050004F903F902F900895CF93DF93CDB7DEB799
:1010600024970FB6F894DEBF0FBECDBF9A83898355
:10107000615070407C836B83BE016F5F7F4F82E75E
:1010800098E00E94310624960FB6F894DEBF0FBE9A
:10109000CDBFDF91CF910895CF93DF93CDB7DEB76A
:1010A0006F81788589859A859E01255F3F4FAC01C8
:1010B0008D819E810E942C08DF91CF910895CF935E
:1010C000DF93CDB7DEB76F81788589859A859E01DC
:1010D000255F3F4FAC018D819E810E943106DF91DB
:1010E000CF910895DC01FC018281938118161906C5
:1010F0008CF4ED91FC91119761931196FC93EE9312
:101100001082FD018281938101979383828381E024
:1011100090E008958FEF9FEF08951F920F920FB602
:101120000F9211242F933F934F935F938F939F932D
:10113000EF93FF938091D8008F5F8093D8008A301F
:1011400058F01092D8008091D6009091D700019667
:101150009093D7008093D60086E082BF80B3282F7B
:10116000332736952795369527952270307083B3AF
:101170009927847090709595879595958795522FAE
:10118000582B80B3282F332736952795227030703F
:1011900083B399278072907035E0959587953A953D
:1011A000E1F7422F482B8091E600E82FFF27EE0F52
:1011B000FF1FEE0FFF1FE50FF11DE255FF4F80816E
:1011C000282F332727FD30958091E1009091E20090
:1011D000820F931F9093E2008093E1008091E300DF
:1011E000E82FFF27EE0FFF1FEE0FFF1FE40FF11D8B
:1011F000E255FF4F8081282F332727FD30958091BE
:10120000E4009091E500821B930B9093E50080939E
:10121000E4005093E6004093E300FF91EF919F912B
:101220008F915F914F913F912F910F900FBE0F9033
:101230001F90189583E083BF12BE81E089BF789428
:1012400008952091D6003091D7008091D6009091DA
:10125000D70082179307C9F308951F920F920FB614
:101260000F9211242F938F939F93EF93FF932CB1A1
:1012700080910C0190910B01891B803261F080916B
:101280000C01E82FFF27EF71F070E55FFE4F22831E
:101290008F5F80930C01FF91EF919F918F912F9120
:1012A0000F900FBE0F901F9018951F920F920FB6C0
:1012B0000F9211248F939F93EF93FF939091EA00E5
:1012C0008091E900981711F455980DC08091E900BC
:1012D000E82FFF27EF71F070E751FF4F8F5F80938A
:1012E000E90082818CB9FF91EF919F918F910F90CE
:1012F0000FBE0F901F90189590910C0180910B01DB
:101300009817D1F380910B01E82FFF27EF71F07050
:10131000E55FFE4F92818F5F80930B01892F9927A4
:1013200008950E947C090895CF93C82F8A3019F43C
:101330008DE00E9494098091EA009091E900891B58
:101340008032C9F38091EA00E82FFF27EF71F07037
:10135000E751FF4FC2838F5F8093EA00559A80E088
:1013600090E0CF9108950E9494090895CF93DF9360
:10137000EC018881882361F088818A3019F48DE03E
:101380000E94940989910E94940988818823A1F779
:10139000DF91CF9108950F931F93CF93C62F8C01A8
:1013A000662339F0F80181918F010E949409C150A0
:1013B000C9F7CF911F910F910895A1E21A2EAA1B90
:1013C000BB1BFD010DC0AA1FBB1FEE1FFF1FA217F5
:1013D000B307E407F50720F0A21BB30BE40BF50BF2
:1013E000661F771F881F991F1A9469F7609570957B
:0E13F000809590959B01AC01BD01CF01089541
:1013FE004C0A2C092C082C094C0A4C0A4C0A0000E9
:10140E002C092C092C0900004C0A400C400C000041
:10141E004C0A2C092C082C094C0A4C0A4C0A4C0A72
:10142E002C092C094C0A2C092C08000001FF40FF46
:10143E0080FFC0FF000040008000C000FF000001E0
:10144E00FF00FF000001010000FF00FF01004552F8
:0A145E00524F523A20000100010035
:00000001FF
