:1000000065C07EC07DC07CC07BC07AC079C078C02E
:1000100077C034C575C074C073C072C071C070C081
:100020006FC06EC06DC0D4C4FEC3FDC3FCC3FBC3B0
:10003000FAC3F9C3F8C3F7C3F6C3F5C3F4C3BEC428
:10004000F2C3A5C4F0C39EC483C482C481C480C467
:100050007FC47EC47DC47CC47BC4E5C3E4C3E3C366
:10006000E2C3E1C3E0C3DFC3DEC3DDC3DCC3DBC384
:10007000DAC3D9C3D8C3D7C3D6C3D5C3D4C3D3C3B4
:10008000D2C3D1C3D0C3CFC3CEC3CDC3CCC3CBC3E4
:10009000CAC3C9C3C8C3C7C3C6C3C5C3C4C3C3C314
:1000A000C2C3C1C3C0C3BFC3BEC34CC43CC4BBC333
:1000B000BAC3B9C3B8C3B7C3B6C3B5C3B4C32DC4F9
:1000C000B2C3B1C3B0C3AFC3AEC321C411241FBEFA
:1000D000CFE5D4E0DEBFCDBF13E0A0E6B0E0EEE5B3
:1000E000F1E102C005900D92A839B107D9F713E0EC
:1000F000A8E9B3E001C01D92A13CB107E1F72AC015
:100100007FCFEF92FF920F931F937C018B0180D7DB
:100110009C01442737FD4095542FCA01B9010E199F
:100120001F0998014427552782D72FEF3FE740E06A
:1001300050E0BCD7C701AA27BB27820F931FA41F7B
:10014000B51F90936100809360001F910F91FF9005
:10015000EF900895CFE5D4E0DEBFCDBFC9D637D349
:1001600077D587B3886187BB82E690E0ECD683E8D9
:1001700090E0E9D684EA90E0E6D683E890E0E3D622
:1001800085EC90E0E0D6A4D444D51092A90388EE83
:1001900090E011D68091C00334D685EF90E00BD665
:1001A0001092AD031092AC031092AE031092A8030C
:1001B00083E28093AB03FF24EF2CEAD5892B09F06F
:1001C0007AC288D581E090E055D581E090E059D59C
:1001D00087EF90E0F0D547D599278230910509F453
:1001E00065C2833091050CF075C1009709F451C2C6
:1001F000019771F48BEF90E0DED582E08093AA0343
:1002000010926100109260001092AD031092AC0346
:100210001092A7031092A6030FEF10E026E9C22E5A
:10022000D12C5DD48091AC039091AD030196909355
:10023000AD038093AC0365D6892B09F0B8C028D5EF
:100240008091AB03282F33278091BD039091BE038B
:100250008217930720F41092BE031092BD03809181
:10026000BA039091BB038217930720F41092BB034B
:100270001092BA038091AC039091AD038F7090708F
:10028000892B09F49CC110939F0300939E03109344
:100290009D0300939C03C0E06BD5892B09F073C1CB
:1002A00057D5892B09F053C1CC2309F03FC1809168
:1002B000AB0360E099274091BD035091BE034817FE
:1002C000590708F061E02091BA033091BB03281769
:1002D000390718F06093AE036260CA01821B930B6A
:1002E0000B970CF49EC081E08093AE032091AE0387
:1002F000213009F4A8C0223009F49FC1222329F536
:100300004091AC035091AD03609160007091610029
:100310004617570708F0A8C08091AA03813009F456
:1003200097C192E0F92E4931510508F0C0C01093F1
:100330009F0300939E03D0929D03C0929C0342337F
:10034000510518F083E28093AB038091A80328172E
:1003500089F58091A6039091A70301969093A70336
:100360008093A603222371F08091A6039091A703A6
:10037000C39740F010939F0300939E0310939D0337
:1003800000939C03FE1421F0FF2009F0AFC0EF2C76
:10039000B2D3A5D38091AC039091AD030196909315
:1003A000AD038093AC03ADD5892B09F448CFB1D50B
:1003B0001BD245CF82E191E0FED48091AE0380FF55
:1003C00039C08CE4EDD48091AE0381FF31C082E569
:1003D000E7D485E291E0EFD48091BD0312D58CE2A1
:1003E00091E0E9D48091BA030CD583E391E0E3D4A2
:1003F0008091AC039091AD0356D588E391E0DBD4B6
:100400008091A6039091A7034ED585EF90E0D3D4B9
:100410001092A7031092A6032091AE032093A80385
:10042000A1CF241B350B2B30310534F082E05CCF9B
:1004300080E2CECF80E2C6CF6093AE032091AE03C0
:10044000213009F058CFD0929F03C0929E031092A2
:10045000AD031092AC0388EC90E090936100809320
:1004600060002093AA0371CF81E04039580758F407
:1004700083E0F82E10939F0300939E0310939D0337
:1004800000939C035CCF1092AD031092AC0390914B
:10049000AA0383E0891B8093AA036115710591F07B
:1004A000109261001092600040E050E048CFD0927E
:1004B0009F03C0929E038AE69FEF90939D038093D3
:1004C0009C033DCF88EC90E09093610080936000A6
:1004D000AB0135CF8330910509F4CAC0049709F008
:1004E00097CE8EE391E067D482E0C6C086E591E0C6
:1004F00062D48F2D99278230910509F4FAC0833098
:1005000091050CF09FC0019709F4F0C08DE591E0D2
:1005100052D483E391E04FD48091AC039091AD032A
:10052000C2D485EF90E047D4EF2C32CF8C2F1AD174
:1005300089E190E09093AD038093AC036DE770E0A8
:100540008DE290E0DEDD81E48093AB03B2CE8DE6F8
:1005500091E031D48091B50354D48EE791E02BD44F
:100560008091BC034ED480E891E025D48091AC0307
:100570009091AD0398D485EF90E01DD4C16082E0E6
:100580008093AA0391CE85E891E015D48091BF03B2
:1005900038D48EE791E00FD48091B60332D480E84E
:1005A00091E009D48091AC039091AD037CD485EFA8
:1005B00090E001D4C2E081E08093AA0371CE109252
:1005C000A90386E991E0F7D38091B5031AD48EE7A9
:1005D00091E0F1D38091BC0314D48CE991E0EBD38A
:1005E0008091BF030ED48EE791E0E5D38091B603EE
:1005F00008D482EA91E0DFD38091BD0302D488EA77
:1006000091E0D9D38091BA03FCD38EEA91E0D3D3A1
:1006100080919E03F6D384EB91E0CDD380919C032F
:10062000F0D383E391E0C7D38091AC039091AD0305
:100630003AD481E08093A90326CED0929D03C09244
:100640009C0305CF039709F061CF8AEB91E060CF5F
:10065000F82E4931510528F4D0929F03C0929E0391
:100660000DCF8AE69FEF90939F0380939E0363CE06
:1006700085EC91E0A0D381E08093AA031092AD03B2
:100680001092AC0388EC90E090936100809360003E
:10069000BFCD8CED91E08FD381E08093AA0389E1F7
:1006A00090E09093AD038093AC03ECCF84EF91E0A6
:1006B00082D382E0F2CF8DE092E07DD369D3892BA3
:1006C000D9F0C49AC39AC0E063D3892B21F007D232
:1006D000CF5FCC30C8F3C498C398C0E059D3892BFE
:1006E00069F3FDD1CF5FCC30C8F3E8CF86E392E069
:1006F0000FCF80E492E00CCFC9E0F1D1C150C7FF29
:10070000FCCF8BE492E057D343D3892BA9F4C49A4E
:10071000C398C0E03DD3892B21F4E1D1CF5FCC3029
:10072000C8F3C498C39AC0E033D3892B69F7D7D1F3
:10073000CF5FCC30C8F3E8CF83E892E03CD310E041
:10074000C49AC398C1E3CBD1C150C7FFFCCFC498B2
:10075000C39AC1E3C4D1C150C7FFFCCF1F5F15309E
:1007600078F32FCD1F93CF93182F80EA92E023D3F5
:1007700081E09FEF90939F0380939E0390939D034E
:1007800080939C03C3E1B7D1AAD1C150C7FFFBCF6F
:1007900088EB92E010D310FF0DC08FEF90E09093A4
:1007A0009F0380939E03C9E0A6D199D1C150C7FF92
:1007B000FBCF07C08FEF90E090939D0380939C0345
:1007C000F2CF8DEC92E0F7D2CF911F91089586EC95
:1007D00086B93699FECF0895806287B9369A3699E0
:1007E000FECF85B199270895EF92FF920F931F9343
:1007F000CF93E0909C03F0909D0300919E03109195
:100800009F031092AF031092B0031092B20383EFD4
:1008100092E0D1D28091B003882309F0EDC071D36A
:10082000892B09F066C034D28091B20399278F706A
:100830009070892BC1F08091AF03882341F410920E
:100840009F0310929E0310929D0310929C0353D11C
:1008500046D18091B2038F5F8093B2038091B00341
:100860008823E9F2C9C01092A9038EEF92E0A3D2C7
:100870008091B503C6D283E093E09DD28091BC0302
:10088000C0D283E093E097D28091BF03BAD283E0D5
:1008900093E091D28091B603B4D283E093E08BD2FF
:1008A00085E093E088D28AE093E085D28091BD0311
:1008B000A8D280E193E07FD28091BA03A2D286E1F0
:1008C00093E079D265D29DD28AE193E074D2CBD104
:1008D00098D28EE193E06FD280919E0392D284E20F
:1008E00093E069D280919C038CD281E08093A9032C
:1008F000A2CF0FD3C82F9927AA27BB27FC01B097F7
:10090000E335F10508F08FCFED5EFF4F099482E5E6
:1009100047D282E08093B10386CF8CE441D281E05C
:100920008093B10380CF8AE293E045D281E0809347
:10093000AF0310929F0310929E0310929D0310929A
:100940009C0371CF82E42CD283E08093B1036BCF00
:100950008C2F26D281E08093AF038091B103282FA2
:10096000332720FD3CC021FF5ECFEC2FFF27EE0F89
:10097000FF1FE158FD4F8081918190939D038093EB
:100980009C0351CF8C2F0CD21092AF03D2CF809109
:10099000B3039091B4038830910534F4880F991F04
:1009A0009093B4038093B3038CE393E004D28091DB
:1009B000B30327D289E493E0FED135CF8091B3030E
:1009C0009091B403823091057CF395958795E8CF9B
:1009D0008BE493E0F0D181E08093B00324CFEC2F3F
:1009E000FF27EE0FFF1FE158FD4F8081918190930B
:1009F0009F0380939E03B7CF10939F0300939E03A2
:100A0000F0929D03E0929C03CF911F910F91FF9074
:100A1000EF900895009731F0A0EABFE01197F1F749
:100A20000197D1F708950895009731F0A0EABFE04B
:100A30001197F1F70197D1F708950895CF93C82F33
:100A4000882351F084E690E0E5DFC15029F084E688
:100A500090E0E0DFC150B1F7CF910895CF93C82F58
:100A6000882351F08AE090E0D5DFCC2329F08AE09A
:100A700090E0D0DFCC23B1F7CF9108951F920F9271
:100A80000FB60F9211248F939F9380919A039091A8
:100A90009B0301968A30910574F010929B0310928B
:100AA0009A038091980390919903019690939903EA
:100AB0008093980304C090939B0380939A0386E0ED
:100AC00082BF9F918F910F900FBE0F901F9018952E
:100AD00083E083BF12BE81E089BF7894089520919E
:100AE000980330919903809198039091990382170C
:100AF0009307C9F308950F931F93CF93DF9320912A
:100B00009E0330919F03CC27DD27C21BD30B40915E
:100B10009C0350919D0300271127041B150B809106
:100B20005103909152032817390709F44EC087E505
:100B300093E041D180919E0364D186E693E03BD15E
:100B400080919C035ED18AE693E035D18091AC031D
:100B50009091AD03A8D18FE693E02DD180919E03B3
:100B600090919F03909352038093510380919C0333
:100B700090919D039093500380934F038091530372
:100B800090915403C817D90761F0D7FD32C0C098BF
:100B90008FB58F7B8FBDDBBDCABDD0935403C0938F
:100BA000530380915503909156030817190761F17B
:100BB00017FD14C0C5988FB58F7E8FBD19BD08BDB8
:100BC00010935603009355031FC080914F039091DB
:100BD00050034817590709F0AACFD0CFC59A8FB54F
:100BE00080618FBD88279927801B910B99BD88BD97
:100BF000E7CFC09A8FB580648FBD882799278C1B5B
:100C00009D0B9BBD8ABDC9CFDF91CF911F910F91E5
:100C100008951092520310925103109250031092B3
:100C20004F0382E090E09093B4038093B30381EA92
:100C30008FBD82E08EBD1BBC1ABC19BC18BC97E2EC
:100C400088B3892B88BB87B3892B87BB54DF089572
:100C500016BE14BA15BA83E691B3982391BB92B32A
:100C6000982392BB089580B38695869599278770BF
:100C700090700895892B11F0959A0895959808958C
:100C80000895892B11F0969A0895969808950895DD
:100C900083E0A2DD8093B50382E09EDD8093BC03F8
:100CA00085E09ADD8093BF0384E096DD8093B603F0
:100CB00087E092DD99279093BB038093BA0386E087
:100CC0008BDD99279093BE038093BD0380B38093FF
:100CD000B7030895DDDF9091B5038091BC03890FC0
:100CE000912D911D2091BF03820F911D2091B6037C
:100CF000820F911D96958795969587959093B90348
:100D00008093B80363E070E0BDD16093C00381E7D6
:100D100093E051D08091C00374D0089520E030E07A
:100D20008091BD039091BE038A3F910510F421E0AC
:100D300030E0C901089520E030E08091BA0390913D
:100D4000BB038A3F910510F421E030E0C90108950A
:100D500040E050E08091B5032091C003821720F05D
:100D60008091BC03821710F441E050E0CA0108955D
:100D700040E050E08091B6032091C003821720F03C
:100D80008091BF03821710F441E050E0CA0108953A
:100D900080E090E0879902C081E090E00895089596
:100DA000BED008958A3018F08AE2FADF0895805D97
:100DB000F7DF08950895CF93DF93EC018091A903A5
:100DC000882399F48881882331F418C08991E8DF59
:100DD0008881882399F08A30C9F78DE0E1DF899115
:100DE000DFDF88818823B9F709C08DE0D9DF8AE089
:100DF000D7DF8BE2D5DF1092A903E4CFDF91CF914B
:100E00000895CF93DF93282F40E050E0E0EAF3E02D
:100E1000822F6AE02BD1892F805D81934F5F5F4FD6
:100E2000822F24D1282F882399F74330510554F479
:100E300080E2FA01E056FC4F81934F5F5F4F4330F1
:100E40005105D4F31416150654F4EA01C056DC4FCC
:100E50008A91A6DF83E0C03AD80709F0CCF7DF918A
:100E6000CF910895EF92FF920F931F9392E8E92E8E
:100E700093E0F92E082F1127F801F295E295EF7013
:100E8000EF27FF70EF27EE0DFF1D808189DF0F70C8
:100E900010700E0D1F1DF801808182DF1F910F91D0
:100EA000FF90EF900895CF93DF939C01E0E0F0E096
:100EB000C0EAD3E0C9016AE070E0E4D0C09689934B
:100EC0003196C9016AE070E0DDD09B01672B91F794
:100ED0001E161F0654F4EF01C056DC4F8A9160DFE6
:100EE00083E0C03AD80709F0CCF7DF91CF9108959D
:100EF00010BC89E189B9599888E18AB98EE880BD2A
:100F0000089580E090E05F9B089581E090E008956F
:100F10000895F7DF892BE9F38CB199270895482FBD
:100F200021E030E08BB1992796958795929582952F
:100F30008F7089279F70892781709070821793071F
:100F400089F74CB90895CF93DF93EC01888188230A
:100F500051F08991E4DF8881882329F08991DFDFCE
:100F600088818823B1F7DF91CF910895A0E0B0E0A8
:100F7000EBEBF7E0C5C0EC01E880F9800A811B814A
:100F8000C801B7012DE133EF41E050E08FD05901A6
:100F90006A01C801B7012DE133EF41E050E086D08E
:100FA000DC01CB01BC01CD0127EA31E440E050E097
:100FB0003ED07B018C01C601B50124E13BE040E05D
:100FC00050E035D0DC01CB01E81AF90A0A0B1B0B03
:100FD0001E141F041006110644F08FEF9FEFAFEFB1
:100FE000BFE7E80EF91E0A1F1B1FE882F9820A8379
:100FF0001B838FEF9FE7A0E0B0E0E822F9220A23ED
:101000001B23C701EAE0CDB7DEB796C0AFDF089576
:1010100083E993E0ABDF0895AA27BB27809393036E
:1010200090939403A0939503B09396030895629FC1
:10103000D001739FF001829FE00DF11D649FE00DD0
:10104000F11D929FF00D839FF00D749FF00D659F31
:10105000F00D9927729FB00DE11DF91F639FB00D30
:10106000E11DF91FBD01CF0111240895991B79E0FD
:1010700004C0991F961708F0961B881F7A95C9F728
:1010800080950895AA1BBB1B51E107C0AA1FBB1F77
:10109000A617B70710F0A61BB70B881F991F5A9504
:1010A000A9F780959095BC01CD010895A1E21A2E73
:1010B000AA1BBB1BFD010DC0AA1FBB1FEE1FFF1FFC
:1010C000A217B307E407F50720F0A21BB30BE40B4C
:1010D000F50B661F771F881F991F1A9469F7609593
:1010E0007095809590959B01AC01BD01CF0108954D
:1010F0002F923F924F925F926F927F928F929F9228
:10110000AF92BF92CF92DF92EF92FF920F931F9315
:10111000CF93DF93CDB7DEB7CA1BDB0B0FB6F894C6
:10112000DEBF0FBECDBF09942A88398848885F8406
:101130006E847D848C849B84AA84B984C884DF8077
:10114000EE80FD800C811B81AA81B981CE0FD11D5B
:101150000FB6F894DEBF0FBECDBFED010895C800F5
:101160002A2A2A2A2A2A2A2A2A2A2A2A2A2A2A2ADF
:101170002A2A2A2A2A2A2A2A2A2A2A2A2A2A0D0A0C
:10118000002A2A202020202020202020202020206B
:10119000202020202020202020202020202A2A0D4E
:1011A0000A002A2A205374696E676572204D696EA1
:1011B0006953756D6F2050726F6772616D202A2AB6
:1011C0000D0A002A2A2A2A2A2A2A2A2A2A2A2A2AE6
:1011D0002A2A2A2A2A2A2A2A2A2A2A2A2A2A2A2A6F
:1011E0002A0D0A0D0A004C696E65546872657368B1
:1011F0003A20000A00476F0A00496E697469616C01
:101200002048756E742053747261696768740A00AF
:101210004579655374617465206368616E676564C0
:101220003A2000204579654C3A0020457965523ACC
:101230000020433A20002053433A2000496E69744D
:1012400069616C2048756E74204172632052696731
:1012500068740A0048756E743A20002A2A2A2055BC
:101260006E6B6E6F776E202A2A2A004C696E654C71
:10127000206465746563746564202800200029205B
:10128000433A004C696E6552206465746563746509
:10129000642028000D4C4C3A2000204C523A20008B
:1012A00020454C3A20002045523A200020534C3A29
:1012B00020002053523A2000476F20466F7277611A
:1012C000726400496E697469616C2048756E74209F
:1012D000417263204C6566740A00496E69746961E5
:1012E0006C2048756E74205370696E204C6566746E
:1012F0000A00496E697469616C2048756E742053E8
:1013000070696E2052696768740A00576169746970
:101310006E6720666F7220426C61636B2042757449
:10132000746F6E20746F2062652072656C656173E6
:1013300065640A005370696E204C656674005370D2
:10134000696E2052696768740057616974696E67D5
:1013500020666F7220426C61636B20427574746FFB
:101360006E20707265737320746F20737461727471
:101370002035207365636F6E642064656C61790A43
:10138000005374617274696E672035207365636FF2
:101390006E6420636F756E74646F776E0A004176B9
:1013A0006F696420456467653A204261636B696ECA
:1013B000672075700A0041766F696420456467652F
:1013C0003A205475726E696E670A0041766F6964DF
:1013D00020456467653A20446F6E650A000000018D
:1013E000FF40FF80FFC0FF000040008000C000FF02
:1013F000000A44656275674B65790A000D4C5B20F5
:10140000002000205D52200020454C3A200020455D
:10141000523A200020423A0020503A0020534C3AE1
:1014200020002053523A200043616C69627261745B
:101430006520536572766F730A0052616D70446562
:101440006C7461203D20000A00476F0A0001000112
:10145000000100010050756C73654D6F746F7273FD
:10146000204C3A0020523A0020433A20000A004C17
:10147000696E65205468726573686F6C643A200009
:1014800030313233343536373839414243444546BA
:10149000000100000000FFFFFFFFFFFFFFFFFFFF55
:00000001FF
