:200000000C94C5010C94ED010C94ED010C94ED010C94ED010C94ED010C94ED010C94ED0198
:200020000C94ED010C94C4130C94ED010C94ED010C94ED010C940C100C94ED010C94ED0139
:200040000C94ED010C94ED010C94ED010C94ED010C94ED010C94ED010C94ED010C94ED0130
:200060000C94ED010C94ED01580D5E0D610D640D670D6A0D6D0D700D730D760D790D7C0DC1
:200080003E6733323E3E6333320020506F6C6F6C750033F720526F626F7400546573740087
:2000A00050726F6772616D00000000000000001F1F1F1F1F1F1F20506F6C6F6C750033F7CA
:2000C00020526F626F740044656D6F0050726F6772616D00557365204220746F0073656CC7
:2000E0006563742E0050726573732042002D7472792069742100205468616E6B2000202007
:20010000796F75210020204D61696E0020204D656E750042617474657279004C45447300A4
:200120004C43440053656E736F7273004D6F746F7273004D75736963005472696D706F748B
:200140000054696D6572007F4120A54220437E000642003E6733323E3E633332003E3E6381
:2001600033323E673332002163333200216533320021673332002176383E3E63333200003C
:200180000000000000001F1F1F1F1F1F1F04060505041C1C0000020105091E080421205466
:2001A0003132304F354C313661676166616561206461632B61646165612066613C61613C3F
:2001C00062616323612064616323616461656120664F366463643C622D643C61643C6720F5
:2001E000643C662B643C67643C61643C622D20643C64643C65643C662B643C6720643C6610
:200200002B643C67643C61644C384D533C622D643C622D64204D4C652D3C67652D3C672082
:200220004D53633C61633C61204D4C643C66643C66204F354D53622D67622D674D4C3E63EF
:2002400023653E632365204D532061666166204D4C20676323676323204D53206664666458
:20026000204D4C20653C622D653C622D4F364C3136726167616661656120646163236164B5
:200280006165612066613C61613C62616323612064616323616461656120666165616461A3
:2002A00063613C622D61636164673C622D67206567646763673C622D67203C61673C622DEB
:2002C0006763663C616620646663663C622D663C61663C67663C61663C622D653C676520A0
:2002E0006323653C622D653C61653C6765203C66653C67653C61643C66644F35653E6565B2
:200300003E65663E64663E6420622D3E6323622D3E6323613E64663E6420653E65653E6529
:20032000663E64663E64653E643E63233E64623E643E632362203E63236167616567666572
:2003400020664F3664632364666463233C62206323340020202020202020072046756775DE
:200360006520696E2044204D696E6F72202D206279204A2E532E2042616368200720202022
:200380002020202000007314741411241FBECFEFD8E0DEBFCDBF12E0A0E0B1E0EEE0F1E378
:2003A00002C005900D92A831B107D9F712E0A8E1B2E001C01D92A139B107E1F713E0C8E85C
:2003C000D3E004C02297FE010E947618C638D107C9F70E940C020C947A180C940000EF9225
:2003E000FF920F931F938C017B010E943F11C8010E940F1280E090E061E070E00E942C1151
:20040000C7010E940F1288EE93E00E9403141F910F91FF90EF900895CF93DF9382E00E94DC
:200420002E13882311F00E94620580E20E942E13882331F40E94D904882311F40E947F0A57
:20044000C0E0D0E0CE0188559F4F6C2F0E9451122196C630D105B1F70E943F1188EE93E00C
:200460000E94B3140E94D9048823D1F480E890E00E94F90F8AE890E062E970E00E94EF0193
:200480008BE990E060EA70E00E94EF010E943F110E94A0040E9499020E9445030E94340413
:2004A0000E94EA040E943F1180E091E00E94201288E091E00E940910FFCFA8E0B0E0E3E6D2
:2004C000F2E00C9445185C017B01DE011196E8E1F1E088E001900D928150E1F780E090E043
:2004E00061E070E00E942C1100E010E00894E11CF11C6E010894C11CD11CF501E00FF11F4C
:200500008081918123E0880F991F2A95E1F7B7010E94D917FB01EC0DFD1D80810E942712AA
:200520000E5F1F4F0A30110541F72896EAE00C946118A4E1B0E0EFE9F2E00C9443180E945B
:200540003F11FE013B968AE0DF011D928A95E9F77E010894E11CF11C51E0852E912C5F015D
:2005600045E1C42ED12CCC0EDD1E4FC0C70161E00E947914D70120E0E0E030E040E08D9164
:200580009C911197F2E08F3E9F0718F03F5FE22F04C0845F914008F44F5F2F5F12962530DD
:2005A00071F7313049F4443039F4F0E0EE0FFF1FEE0DFF1D9386828680E090E060E070E011
:2005C0000E942C118501D8018D919C91892B11F08AE201C080E20E9427120E5F1F4F0C1577
:2005E0001D0589F7C70168EE73E00E945D0286E090E061E070E00E942C118FE091E00E941F
:20060000201282E390E00E94031480E10E942E13882309F4ABCF82E30E942E138823D9F7F1
:200620000E943F118E010F5F1F4F21C0C80160E00E94791480E090E060E070E00E942C1105
:2006400081E191E00E942012C80168EE73E00E945D0286E090E061E070E00E942C1186E1D3
:2006600091E00E94201282E390E00E94031480E20E942E138823D1F282E30E942E13882301
:20068000D9F76496ECE00C945F18CF92DF92EF92FF920F931F930E943F1180E291E00E940E
:2006A000201280E090E061E070E00E942C1107E211E0C8010E94201282E00E94BE130E94DA
:2006C0003F118FE291E00E94201280E090E061E070E00E942C1196E3C92E91E0D92EC60125
:2006E0000E9420128CE390E060E070E00E942B1380E10E94BE130E943F118EE391E00E948D
:20070000201280E090E061E070E00E942C1185E4E82E81E0F82EC7010E9420128FEF90E0D7
:2007200060E070E00E942B1380E20E94BE130E943F118DE491E00E94201280E090E061E0BB
:2007400070E00E942C11C8010E94201284EC9FEF60E070E00E942B1382E00E94BE130E94E8
:200760003F1185E591E00E94201280E090E061E070E00E942C11C6010E94201281E09FEFB0
:2007800060E070E00E942B1380E10E94BE130E943F118DE591E00E94201280E090E061E05B
:2007A00070E00E942C11C7010E94201280E090E06CE370E00E942B1380E20E94BE130E94A8
:2007C0003F1184E691E00E94201280E090E061E070E00E942C11C8010E94201280E090E06D
:2007E0006FEF70E00E942B1382E00E94BE130E943F118BE691E00E94201280E090E061E0DD
:2008000070E00E942C11C6010E94201280E090E064EC7FEF0E942B1380E10E94BE130E942A
:200820003F1183E791E00E94201280E090E061E070E00E942C11C7010E94201280E090E00D
:2008400061E07FEF0E942B1380E20E94BE1380E090E060E070E00E942B131F910F91FF9015
:20086000EF90DF90CF900895FF920F93DF93CF9300D0CDB7DEB70E943F1150C00E9458148E
:20088000F62E80E00E94860B80E090E060E070E00E942C118BE791E00E94201280E090E0DB
:2008A00061E070E00E942C110E941E0CA0E0B0E0BC01CD010E94FD1183E891E00E94201201
:2008C00086E090E061E070E00E942C1187E891E00E9420121DC00E941E0C9A83898368ECF8
:2008E00070E04FE00E94270D2AE00202C0011124E981FA81E817F9072CF481E00E94541232
:2009000080E004C080E00E94541281E00E945B120E945814062F0F190436ECF282E00E9454
:200920002E13882309F4AACF82E00E942E138823D9F70F900F90CF91DF910F91FF900895BB
:20094000EF92FF920F931F930E943F1123C00E94380C7C0180E090E060E070E00E942C11BA
:200960000027F7FC0095102FC801B7010E94FD1189E891E00E94201280E090E061E070E041
:200980000E942C118DE891E00E94201284E690E00E94031482E00E942E138823C1F282E323
:2009A0000E942E138823D9F71F910F91FF90EF900895F894F999FECF80E090E092BD81BD96
:2009C000F89A80B590E078948730910514F080E090E008951F93CF93DF93F894F999FECFA5
:2009E000C0E0D0E0D2BDC1BDF89A80B5282F30E078942730310514F020E030E0122F22302C
:200A00003CF585E991E00E9409100E943F1189E991E00E942012212F332727FD309562E08D
:200A200070E0621B730B882777FD8095982F0E94FD11F894F999FECF1FBAD2BDC1BD1F5F6D
:200A400010BD0FB6F894FA9AF99A0FBE7894FFCF263039F185E991E00E9409100E943F119E
:200A600080EA91E00E942012212F332727FD309566E070E0621B730B882777FD8095982FA4
:200A80000E94FD11F894F999FECF1FBAD2BDC1BD1F5F10BD0FB6F894FA9AF99A0FBE789439
:200AA000FFCFF894F999FECF1FBAD2BDC1BD10BC0FB6F894FA9AF99A0FBE7894DF91CF91AA
:200AC0001F9108950F931F93CF93DF930E943F1187EA91E00E9420128AB183688AB912E09E
:200AE00001E08BB181278BB98BB180278BB98BB180588BB9C0E0D0E008C08AE090E00E94DA
:200B000003142196C233D10529F080E10E942E13882399F38BB181278BB9C0E0D0E008C068
:200B20008AE090E00E9403142196C233D105C9F280E10E942E138823A1F6F2CF1F9382E387
:200B40000E94C113182F992787FD909581FF03C087E691E007C084FF03C08CE691E002C09C
:200B600081E791E00E94F90F812F0E947B13812F1F910895EF92FF920F931F938C017B01A6
:200B80000E943F11C8010E940F1280E090E061E070E00E942C11C7010E940F1288EE93E023
:200BA0000E9403141F910F91FF90EF9008951F93CF93DF9385E091E06CE071E00E94BA0527
:200BC000C6E0D0E00E943F1180E090E061E070E00E942C1187E491E00E940F1280E090E01E
:200BE00060E070E00E942C11E0911C02F0911D02EE0FFF1FEF51FE4F808191810E940F12D9
:200C000081E00E940E1182E30E942E138823D9F782E30E94C113182F992787FD909581FFE4
:200C20000AC087E691E00E94F90F80911C0290911D02019758C084FF4BC00E9403110E945D
:200C40003F118CE691E00E94F90F812F0E947B131CC080E090E061E070E00E942C1180E556
:200C600091E00E940F1280E090E060E070E00E942C11E0911C02F0911D02EE0FFF1FED5278
:200C8000FE4F0190F081E02D099580E10E942E138823F9F280E090E060E070E00E942B1340
:200CA0000E94490C109219021092180210921B0210921A0280E00E94541280E00E945B1270
:200CC0008CE691E00E94F90FDF91CF911F91089585FF0DC081E791E00E94F90F80911C0267
:200CE00090911D02019690931D0280931C0280911C0290911D0297FF04C0D0931D02C0930C
:200D00001C0280911C0290911D0207970CF45ACF10921D0210921C0255CFCF93DF93C0E066
:200D2000D0E08AE090E00E94031480E10E942E13882311F081E005C02196C931D10589F753
:200D400080E0DF91CF910895EF92FF920F931F930E9458147B018C018091210290912202D0
:200D6000A0912302B09124020097A105B10501F18091290290912A02A0912B02B0912C027B
:200D800020912502309126024091270250912802821B930BA40BB50B8E0D9F1DA01FB11FFD
:200DA0008093290290932A02A0932B02B0932C02E0922502F0922602009327021093280209
:200DC00082E00E942E138823F9F0809120028823D9F481E08093200210922102109222026E
:200DE00010922302109224021092290210922A0210922B0210922C020E943B0C882321F481
:200E000087E691E00E94F90F82E00E942E13882311F41092200280E20E942E13882339F177
:200E200080911F02882319F581E080931F0220E030E040E050E08091210290912202A09128
:200E40002302B09124020097A105B10521F421E030E040E050E0209321023093220240930D
:200E600023025093240281E791E00E94F90F80E20E942E13882311F410921F0260912902ED
:200E800070912A0280912B0290912C0220EC37E249E050E00E942218CA01B9012AE030E09F
:200EA00040E050E00E9422180E94FD116091290270912A0280912B0290912C0220E63AEE52
:200EC00040E050E00E942218CA01B9012AE030E040E050E00E9422180E94FD118AE30E945C
:200EE00027126091290270912A0280912B0290912C0228EE33E040E050E00E942218CA01C3
:200F0000B9012CE330E040E050E00E9422182AE030E040E050E00E942218CA01B9010E945F
:200F2000FD116091290270912A0280912B0290912C0228EE33E040E050E00E942218CA01AD
:200F4000B9012CE330E040E050E00E9422182AE030E040E050E00E942218162F772767FDFF
:200F60007095872F972F0E94FD118EE20E9427126091290270912A0280912B0290912C021F
:200F800024E630E040E050E00E942218CA01B9012AE030E040E050E00E9422180E94FD1190
:200FA0006091290270912A0280912B0290912C022AE030E040E050E00E942218CA01B90190
:200FC0002AE030E040E050E00E9422180E94FD1180911E021817A1F08091290290912A02A1
:200FE000A0912B02B0912C020097A105B10541F00E943B0C882321F486E791E00E94F90FCF
:2010000010931E021F910F91FF90EF900895CF93DF930E94581420912D0230912E0240918E
:201020002F0250913002621B730B840B950B6B3F71058105910550F1C0E0D0E0E0913102D1
:20104000FF27E7FDF095EC0FFD1FED5AFC4FE4918E2F0E9427122196C830D10579F70E94B4
:20106000581460932D0270932E0280932F0290933002809131028F5F80933102992787FD5A
:2010800090950896C29710F0109231020E943B0C882321F48DE991E00E94F90F84E690E04B
:2010A0000E940314DF91CF9108950F931F9382E00E942E1320911802309119028823E9F046
:2010C000232B89F488EC90E00E94031482E00E942E13882341F490E080913302882309F425
:2010E00091E09093330280911802909119020A96909319028093180206C024513040309347
:2011000019022093180280E20E942E1320911A0230911B028823E9F0232B89F488EC90E0C4
:201120000E94031480E20E942E13882341F490E080913202882309F491E09093320280919B
:201140001A0290911B020A9690931B0280931A0206C02451304030931B0220931A028091BB
:2011600018029091190297FF04C0109219021092180280911802909119028F3F910539F052
:2011800034F08FEF90E0909319028093180280911A0290911B0297FF04C010921B021092AC
:2011A0001A0280911A0290911B028F3F910539F034F08FEF90E090931B0280931A02809189
:2011C0001802909119026AE170E00E94ED17FB01E051FE4F108180911A0290911B026AE1B7
:2011E00070E00E94ED17FB01E051FE4F0081812F0E94271280913302882311F481E401C057
:2012000081E60E942712812F0E94271285E090E060E070E00E942C11802F0E942712809122
:201220003202882311F483E401C083E60E942712802F0E942712E0911802F091190280919C
:201240003302882319F441E050E002C04FEF5FEF20911A0230911B0280913202882319F45A
:2012600081E090E002C08FEF9FEF829FB001839F700D929F700D11244E9FC0014F9F900D42
:201280005E9F900D11240E942B1382E390E00E9403141F910F910895FF920F93DF93CF931D
:2012A00000D0CDB7DEB70E945814F62E80E00E94860B0E941E0CA0E0B0E0BC01CD010E9477
:2012C000FD118FEA91E00E9420121DC00E941E0C9A83898368EC70E04FE00E94270D2AE0BD
:2012E0000202C0011124E981FA81E817F9072CF480E00E94541281E004C081E00E945412FA
:2013000080E00E945B120E945814062F0F190436ECF20F900F90CF91DF910F91FF90089501
:20132000AAE0B0E0E6E9F9E00C94491880E20E942E139E012F5F3F4F882319F0C90160E02C
:2013400002C0C90161E00E9479148E010F5F1F4F2BE0E22EF12CEC0EFD1EF80181919191AC
:201360008F0169EC70E00E94D917FB01E051FE4F80810E9427120E151F0579F780E20E9495
:201380002E13882319F083EB91E002C087EB91E00E94201284E690E00E9403142A96E6E0E7
:2013A0000C9465188BEB91E00E9409108FEB91E00E94201281E00E9454120E948D06882366
:2013C000F9F40E9454120E948D068823C9F485EC91E00E94091080E090E060E070E00E94DC
:2013E0002C118AEC91E00E94201281E00E945B120E948D06882321F40E945B120E948D064C
:2014000008950E94380CAA2797FDA095BA2FBC01CD010E94FD1180ED91E00E94201284E66F
:2014200090E00E94031408950F931F930FE711E0C80160E00E945112C801019661E00E945A
:201440005112C801029662E00E945112C801049663E00E945112C801059664E00E94511229
:20146000C801069665E00E94511285E991E066E00E9451128DE891E067E00E9451120E94BF
:201480003F111F910F91089580ED97E00E94B3140E94140A83E591E00E94F90F86EB90E09E
:2014A0006EEB70E00E94BA0587EC90E06CEC70E00E94BA0584ED90E06DED70E00E94BA054A
:2014C0000E943F1185EE90E00E940F1280E090E061E070E00E942C118DEE90E00E940F1286
:2014E0000E949E0584FFFCCF8DE591E00E94F90F86EF90E06EEF70E00E94BA0508950E949A
:20150000440A0E94D705FDCFCF93DF93BC018230910510F462E070E0A0918F02B09190022F
:20152000ED01E0E0F0E040E050E021C0888199818617970769F48A819B81309719F0938334
:20154000828304C09093900280938F02FE0134C06817790738F44115510519F0841795075F
:2015600008F4AC01FE018A819B819C01E9012097E9F641155105A9F1CA01861B970B049790
:2015800008F4BA01E0E0F0E02AC08D919C91119784179507F9F46417750781F412968D91D1
:2015A0009C911397309719F09383828304C09093900280938F02FD0132964CC0CA01861B0E
:2015C000970BFD01E80FF91F6193719302978D939C9340C0FD01828193819C01D901109749
:2015E000A1F680918D0290918E02892B41F4809113029091140290938E0280938D02409197
:201600001502509116024115510541F44DB75EB78091110290911202481B590B20918D0260
:2016200030918E02CA01821B930B8617970780F0AB014E5F5F4F8417950750F0420F531F67
:2016400050938E0240938D02F9016193719302C0E0E0F0E0CF01DF91CF910895CF93DF9360
:20166000009709F450C0EC0122971B821A82A0918F02B0919002109709F140E050E0AC179E
:20168000BD0708F1BB83AA83FE0121913191E20FF31FAE17BF0779F48D919C911197280F8A
:2016A000391F2E5F3F4F3983288312968D919C9113979B838A834115510571F4D093900282
:2016C000C0938F0220C012968D919C911397AD01009711F0DC01D3CFFA01D383C28321919C
:2016E0003191E20FF31FCE17DF0769F488819981280F391F2E5F3F4FFA01318320838A81D3
:201700009B8193838283DF91CF910895882321F480917C008F7D03C080917C008062809387
:201720007C000895382F803188F528B181E090E0032E02C0880F991F0A94E2F78095282338
:2017400028B927B1822387B987E880937A0080917C00806480937C00662321F080917C00C8
:20176000806803C080917C008F7780937C0080917C00807E80937C0080917C00832B809334
:201780007C0080917A00806480937A000895A0E0B0E0EDECFBE00C944718EB01C7B0D8B086
:2017A00060E00E94920B9E01EE24FF24870180917A00806480937A0080917A0086FDFCCF79
:2017C00080917C0085FF04C08091790090E004C08091780090917900A0E0B0E0E80EF91E36
:2017E0000A1F1B1F2150304011F7D8B8C7B8CE0196958795C034D10540F48E0D9F1D6C2F88
:2018000070E00E94D9179B010DC0A0E0B0E0E80EF91E0A1F1B1F9E0140E050E0C801B7018D
:201820000E940018C901CDB7DEB7E8E00C94631887E064E170E00E94C70B08950E94180C55
:20184000089586E06AE070E00E94C70BA0E0B0E0BC01CD012CE43DE140E050E00E94AE17F7
:201860002FEF33E040E050E00E942218C90108950E94210C08958091FA01882339F020E058
:201880008091350290913602892B09F021E0822F089510926F00E1E8F0E08081887F816018
:2018A000808380E197E2909389008093880010928B0010928A0081E08093FA011092360262
:2018C000109235020895A0E0B0E0E9E6FCE00C944518FC015B01C42E809134028823C1F4E8
:2018E00081E08093340210926F0083E28093800081E1809381001092820080E197E290931E
:2019000089008093880010928B0010928A00229A1092FA01F7FD03C0DD24D39403C0FF7799
:201920002AE0D22E80918100082F10E0087F107088ECD89EC00111248E179F07C0F4EF010E
:2019400087E2E131F80710F0C0E1D7E2BE017695679580E090E06058794687469F4F9E014C
:2019600040E050E00E9400187901016024C088E2D89E802D1124C82FD0E0CE17DF0708F46E
:20198000EF01BE01769567959E0140E050E08AE0D81639F480E090E0605E734481449F4F25
:2019A00006C080E090E060537D4E8C4E9F4F0E940018790102608AE0D81639F4CE010596C6
:2019C0006AE070E00E94D917EB0183E0C83ED80711F4B5010FC0BE0180E090E0950140E0D8
:2019E00050E00E94AE1728EE33E040E050E00E942218B90110926F0000938100F092890011
:201A0000E0928800E0918800F0918900AC2DA03108F0AFE080E190E08A1B910902C0F6953B
:201A2000E7958A95E2F7F0938B00E0938A0070933C0260933B0286B38FEF86BB81E080934A
:201A40006F007894CDB7DEB7EAE00C9461180E94630C0895CF93DF93EB018F3F11F044236B
:201A600029F488EE93E0BE0140E067C0813110F420E005C0282F2051203608F02FE5822F04
:201A80006CE00E94CD17382F682F70E084EF9FEF689FF001699FF00D789FF00D1124E20FEE
:201AA000F11DEC30F10538F4EC5CFF4F0C9474188CE991E023C080E090E020C085EB91E0BE
:201AC0001DC08FEC91E01AC08AEE91E017C087E092E014C086E292E011C087E492E00EC0A0
:201AE00089E692E00BC08EE892E008C085EB92E005C08EED92E002C08AE093E0373071F08F
:201B000002C0880F991F6A95E2F7323020F005966AE070E00BC0805090480BC036E0880F4A
:201B2000991F3A95E1F7029665E070E00E94D917CB01403108F04FE0BE010E94630CDF91E3
:201B4000CF91089530913902E0913502F0913602332311F0249101C02081822F81548A317C
:201B600008F4205E203221F43196CF01019781F7F0933602E0933502822F0895CF93DF9356
:201B80000E94A20D282FC0E0D0E01DC0CE0153E0880F991F5A95E1F7CC0FDD1FC80FD91FB2
:201BA000822F992787FD9095C80FD91FE097809135029091360201969093360280933502E8
:201BC0000E94A20D282F822F80538A30F8F2CE01DF91CF910895A0E0B0E0E1EFFDE00C949C
:201BE00043188090FB01B0903702BB2021F060913802662399F4A09038020091000210913A
:201C00000102E090FC01F090FD01C091FE01D091FF01C0900202D09003020DC18FEF70E0D0
:201C200040E00E942A0D10923802D0C194E0892EBB2404EF11E084E0E82EF12CC0EDD7E055
:201C4000B4E09B2EAFE0CA2ED12C0E94A20D282F8091350290913602019690933602809355
:201C60003502263609F49BC02736CCF42236A1F1233674F42E3361F12F3334F42132B1F27E
:201C80002C3309F010C126C0213609F00CC126C1243609F452C025360CF068C036C02F36EE
:201CA00009F4C6C0203754F42C3609F4AAC02D3609F4ABC0273609F0F6C08AC0243709F4C0
:201CC000D6C0263709F4EBC0223709F0ECC0B5C08394BBCF8A94B9CFA0923802B0923702C8
:201CE0001093010200930002F092FD01E092FC01D093FF01C093FE019092FB01D092030280
:201D0000C0920202FF242BE001C1A0923802B09237021093010200930002F092FD01E09269
:201D2000FC01D093FF01C093FE019092FB01D0920302C0920202FF2498C0A0923802B092ED
:201D400037021093010200930002F092FD01E092FC01D093FF01C093FE019092FB01D092EB
:201D60000302C0920202FF2422E0D0C0A0923802B09237021093010200930002F092FD01B1
:201D8000E092FC01D093FF01C093FE019092FB01D0920302C0920202FF2424E0B7C0A09274
:201DA0003802B09237021093010200930002F092FD01E092FC01D093FF01C093FE0190926D
:201DC000FB01D0920302C0920202FF2425E09EC0A0923802B09237021093010200930002A2
:201DE000F092FD01E092FC01D093FF01C093FE019092FB01D0920302C0920202FF2427E03A
:201E000085C00E94BE0D7C0144C00E94A20D8C3611F4BB2403C0AA24BB24B3948091350299
:201E200090913602019690933602809335020DCF0E94BE0D882E982C08CFA0923802B092C5
:201E400037021093010200930002F092FD01E092FC01D093FF01C093FE019092FB01D092EA
:201E60000302C0920202FF24F39420E04FC00E94BE0DBC0180EC9DE50E94D917CB01EB01EC
:201E8000F3E0CC0FDD1FFA95E1F7880F991FC80FD91FCE01B7010E94D9178B01D6CE0E9428
:201EA000BE0D6C01D2CEA0923802B09237021093010200930002F092FD01E092FC01D093D6
:201EC000FF01C093FE019092FB01D0920302C0920202109236021092350278C0A09238027E
:201EE000B09237021093010200930002F092FD01E092FC01D093FF01C093FE019092FB016A
:201F0000D0920302C0920202FF2429E08CE0889EC0011124E22EE80E0AC080913502909117
:201F2000360201969093360280933502E3940E94A20D8B3291F3833281F30CC080913502E7
:201F40009091360201969093360280933502EA940E94A20D8D3291F3C0910002D091010223
:201F60008153883058F40091FE011091FF010E94BE0DBC01C8010E94D917EB018E010BC08D
:201F8000809135029091360201969093360280933502C00FD11F169507950E94A20D8E324D
:201FA00079F380913702882339F0CE019695879580933802C81BD109FF2011F0EE24EA94C7
:201FC0008E2DBE01409102020E942A0DCDB7DEB7ECE00C945F1810926F009093360280935E
:201FE000350281E080933902109238020E94EB0D08950E94EB0F089510926F009093360243
:202000008093350210923902109238020E94EB0D08950E94FC0F08951F920F920FB60F9284
:2020200011242F933F934F935F936F937F938F939F93AF93BF93EF93FF9380913B02909184
:202040003C02019790933C0280933B02019609F580918100887F81608093810080E197E27C
:20206000909389008093880010928B0010928A0081E08093FA0110926F00809135029091D7
:202080003602892B31F080913A02882311F40E94EB0DFF91EF91BF91AF919F918F917F919C
:2020A0006F915F914F913F912F910F900FBE0F901F90189565B190E0AC0141705070440F62
:2020C000551F9C012670307053E0220F331F5A95E1F7422B6D7C462B45B92BB188709070A3
:2020E00034E0880F991F3A95E1F72F77282B2BB95C9A81E090E0FC016F9364E06A95F1F708
:202100006F913197C9F75C986F9364E06A95F1F76F910197C9F70895A0E0B0E0E2E9F0E175
:202120000C944818DAB057985A98289A0E9443147B018C01C1E0D0E05C9ACE016F9364E014
:202140006A95F1F76F910197C9F789B15C98FE016F9364E06A95F1F76F913197C9F75C9A68
:20216000FE016F9364E06A95F1F76F913197C9F75C9887FF0BC00E9443146E197F09800BD3
:20218000910B6A30710581059105B0F2DAB8CDB7DEB7E7E00C946418CF92DF92EF92FF9263
:2021A0000F931F93082F162F0E9475110E948C10D4B0C5B0FAB0EBB05A9828988BB1110F9D
:2021C000110F812B8BB984B1826384B9579A802F82958F700E945A10802F8F700E945A101C
:2021E000FAB8EBB8D4B8C5B81F910F91FF90EF90DF90CF90089560E00E94CC1008958CE0F1
:202200000E94FB1008950E94FF100895813011F48FE001C08EE00E94FB1008950E940611CF
:202220000895A2E0B0E0E7E1F1E10C944B18182F062F80E8898380EC8A83FE01E60FF11DE7
:202240008181810F0E94FB1010933E0200933D022296E4E00C9467180E941111089581E02D
:202260000E94FB10E4E0F2E080E2819392E0EC30F907D9F710923E0210923D0208950E9445
:202280002F110895529A209A549A84E190E00E94121480E30E94FB1086E090E00E94121482
:2022A00080E30E94FB1082E090E00E94121480E30E94FB1082E090E00E94121480E20E94C6
:2022C000FB1082E090E00E94121488E20E94FB1088E00E94FB1081E00E94FB1086E00E9417
:2022E000FB108CE00E94FB10089580913F02882329F481E080933F020E94421108956F92BB
:202300007F928F929F92AF92BF92CF92DF92FF920F93DF93CF93CDB7DEB72A970FB6F894C4
:20232000DEBF0FBECDBF5B016C010AE03E010894611C711CFA2CC601B5012AE030E040E032
:2023400050E00E940018C901DA015C016D0101504301800E911C80E3F80EC601B5012AE063
:2023600030E040E050E00E94AE17F61AF401F082A114B104C104D104E9F609C0F601E00F8D
:20238000F11D808161E00E94CC100F5F04C06E010894C11CD11C0A3088F32A960FB6F894A2
:2023A000DEBF0FBECDBFCF91DF910F91FF90DF90CF90BF90AF909F908F907F906F900895D3
:2023C000EF92FF920F931F937B018C0197FF0CC010950095F094E094E11CF11C011D111DA4
:2023E0008DE261E00E94CC10C801B7010E947F111F910F91FF90EF9008950E94E0110895D1
:20240000CF93DF93EC0104C061E00E94CC102196FE0184918823C1F7DF91CF9108950E943B
:2024200000120895CF93DF93EC0104C0219661E00E94CC1088818823C9F7DF91CF91089511
:202440000E941212089561E00E94CC1008950E9423120895EF92FF920F931F93CF93DF930F
:202460007C01062F10E0E3E0000F111FEA95E1F7C0E0D0E09E01200F822F80640E94FB1001
:20248000F701EC0FFD1FE4918E2F61E00E94CC102196C830D10571F7CDB7DEB7E6E00C94D0
:2024A00065180E942A120895519A882311F459980895599A0895579A882311F05F9A089538
:2024C0005F980895282F883068F481E090E002C0880F991F2A95E2F7282FAAE2B0E0EBE243
:2024E000F0E029C08E3080F430E02850304081E090E002C0880F991F2A95E2F7282FA4E2A2
:20250000B0E0E5E2F0E017C0853130F020E0A0E0B0E0E0E0F0E00FC030E02E50304081E019
:2025200090E002C0880F991F2A95E2F7282FA7E2B0E0E8E2F0E06F3F19F48081822709C04A
:20254000662319F08081822B04C09081822F8095892380838C91822B8C930895E0EBF0E0D0
:2025600083EF8083808184BDE1EBF0E082E08083808185BDE4EBF0E010828081E3EBF0E090
:202580008083808188BD88B587BD86E060E00E94621285E060E00E9462128BE060E00E94AD
:2025A000621283E060E00E946212089580914002882329F481E0809340020E94AE12089581
:2025C000CF93DF93EC010E94D612D7FD02C020E004C0D095C195DF4F21E0CE01CF3FD105B9
:2025E00019F014F08FEF90E0222319F018BC87BD02C088BD17BCDF91CF910895CF93DF935F
:20260000EC010E94D612D7FD02C020E004C0D095C195DF4F21E0CE01CF3FD10519F014F03F
:202620008FEF90E0222329F01092B4008093B30004C08093B4001092B300DF91CF910895E5
:202640000F931F938B010E94E012C8010E94FE121F910F9108950E9420130895282F8091C4
:202660004102882391F481E08093410284B18D7C84B985B1826385B981E090E06F9364E045
:202680006A95F1F76F910197C9F783B18095822308951F93CF93DF93182F809141028823A4
:2026A00091F481E08093410284B18D7C84B985B1826385B981E090E06F9364E06A95F1F70C
:2026C0006F910197C9F7C12FD0E083B190E08C239D23892BD1F38AE090E00E94121483B1A1
:2026E00090E08C239D23892B81F383B18123DF91CF911F9108950E94491308951F93CF932F
:20270000DF93182F80914102882391F481E08093410284B18D7C84B985B1826385B981E090
:2027200090E06F9364E06A95F1F76F910197C9F7C12FD0E083B190E0809590958C239D23B7
:20274000892BC1F38AE090E00E94121483B190E0809590958C239D23892B61F383B18095D1
:202760008123DF91CF911F9108951F930E947E13182F0E944913812F1F9108950E94B51307
:2027800008950E947E1308951F920F920FB60F9211242F933F934F938F939F93AF93BF9381
:2027A0002091460230914702C90180509C4F909347028093460280519742C8F08091420213
:2027C00090914302A0914402B09145020196A11DB11D8093420290934302A0934402B093F6
:2027E0004502205133423093470220934602BF91AF919F918F914F913F912F910F900FBEE9
:202800000F901F90189528EE33E009C0F9016F9364E06A95F1F76F913197C9F701970097ED
:20282000A9F7089528EE33E009C0F9016F9364E06A95F1F76F913197C9F701970097A9F7EB
:202840000895A0E7B0E08C918E7F8C93E0EBF0E0808183608083E1EBF0E08081807F80835A
:20286000808182608083B89A8C9181608C937894089580914802882329F481E08093480279
:202880000E94211408950E943914E0E7F0E080818E7F80832091420230914302409144021B
:2028A00050914502808181608083B901CA0108950E94431408950E943914E0E7F0E08081CC
:2028C0008E7F8083109242021092430210924402109245021092470210924602B89A808122
:2028E000816080830895089589E492E00E94901708959C01462F89E492E0B9010E94F116A1
:2029000008950F93DF93CF9300D000D00F92CDB7DEB79C01962FDE011196ECE0F2E085E05F
:2029200001900D928150E1F7BE016F5F7F4F992329F089E492E045E00FEF04C089E492E0E9
:2029400045E003E10E94211589E492E00E9409150E945B140F900F900F900F900F90CF916B
:20296000DF910F91089560E00E9481140895FC0111821082138212821582148217821682ED
:20298000613118F080E1808701C06087208B483078F481E090E002C0880F991F4A95E2F764
:2029A00081878BE290E0938782878AE290E029C04E3098F4242F30E02850304081E090E024
:2029C00002C0880F991F2A95E2F7818785E290E09387828784E290E014C04431A8F4242F3E
:2029E00030E02E50304081E090E002C0880F991F2A95E2F7818788E290E09387828787E2F1
:202A000090E095878487089515861486138612860895DC011C96ED91FC911D97309781F0F9
:202A2000808119969C911997892B80831A96ED91FC911B97908119968C9180958923808344
:202A40000895A0E0B0E0E7E2F5E10C944118EC016B01642F7901402F20E00E94B714CE0120
:202A60008F5B9F4FFC011082FE01EE5BFF4F1082DE01AD5BBF4F1C92FF86EE8630E041E0FA
:202A800050E07F0166E2662E712C8C0123E2822E912CBD0199E2A92EB12C58C0A32FB0E0A7
:202AA000F601EA0FFB1F80818830C0F4FA0102C0EE0FFF1F8A95E2F7CF01FE01EA0FFB1FED
:202AC000818BFB012081282B2083AA0FBB1FAC0FBD1F9296BC92AE92919737C08E30D0F4D6
:202AE00090E00897FA0102C0EE0FFF1F8A95E2F7CF01FE01EA0FFB1F818BF8012081282B1C
:202B00002083AA0FBB1FAC0FBD1F92969C928E9291971BC08431C8F490E00E97FA0102C02C
:202B2000EE0FFF1F8A95E2F7CF01FE01EA0FFB1F818BF7012081282B2083AA0FBB1FAC0FB7
:202B4000BD1F92967C926E9291973F5F8885381708F4A4CFCDB7DEB7EEE00C945D18A0E056
:202B6000B0E0E5EBF5E10C944318EC015B01CF5BDF4F4991A9918880C354D04090E009C007
:202B8000E92FF0E0EE0FFF1FEA0DFB1D118210829F5F88859817A0F384B1CF5BDF4F39915A
:202BA000832B84B987B12991822B87B98AB19881C354D040892B8AB985B1832B85B988B17E
:202BC000822B88B98BB1892B8BB9EAE0F0E06F9364E06A95F1F76F913197C9F784B130958A
:202BE000832384B987B12095822387B98AB1909589238AB985B1382335B988B1282328B9ED
:202C00008BB198239BB99090B000C090B1008091B00083608093B00082E08093B100D090AB
:202C2000B20060E070E03AC05091B2005D19650F711DE3B0E41609F04FC0F6B0FA1609F009
:202C40004BC089B1881509F047C025C0A42FB0E09D01220F331F8501020F131FF801808166
:202C60009181892BA1F42C0F3D1FF90181A192A1FC01208130E0AC0FBD1F51968C9190E05A
:202C800028233923232B19F4F801718360834F5F88854817D8F2D50E4E2DAF2D8E859F850D
:202CA0006817790708F29092B000C092B10020E00FC0E22FF0E0EE0FFF1FEA0DFB1D80816B
:202CC0009181892B21F48E859F85918380832F5F8885281770F305C0E3B0F6B089B040E037
:202CE000D7CFCDB7DEB7ECE00C945F18A0E0B0E0ECE7F6E10C944718EC018B01D0907C0024
:202D0000E0907A00C7B0F8B080917A0086FDFCCF90E009C0E92FF0E0EE0FFF1FE00FF11F96
:202D2000118210829F5F88859817A0F397B18AA18095982397B998B1892388B987E88093D6
:202D40007A0050E024C0FE01E40FF11D818980937C0080917A00806480937A0080917A00C5
:202D600086FDFCCFE42FF0E0EE0FFF1FE00FF11F209178003091790080819181820F931F4F
:202D8000918380834F5F88854817E8F25F5F89A1581710F040E017C040E0F5CFE42FF0E013
:202DA000EE0FFF1FE00FF11F69A1862F90E09595879520813181820F931F70E00E94D9170C
:202DC000718360834F5F8885481740F3D0927C00E0927A00F8B8C7B8CDB7DEB7E8E00C9455
:202DE0006318A0E2B0E0E7EFF6E10C9446188C017B01D42E842F81508230B0F4D8011C962B
:202E0000ED91FC911D97309779F0808119969C911997892B80831A96ED91FC911B97808111
:202E200019969C91892B8083F8018089882349F5C02EB12EC801B7010E94AF15D8011C96D5
:202E4000ED91FC911D97309781F0808119969C911997892B80831A96ED91FC911B979081B9
:202E600019968C91809589238083B2E0DB1609F053C08C2D9B2DBE016F5F7F4F0E94AF15F1
:202E800027C0C02EB12EC801B7010E947616D8011C96ED91FC911D97309781F0808119969D
:202EA0009C911997892B80831A96ED91FC911B97908119968C91809589238083B2E0DB16ED
:202EC00059F58C2D9B2DBE016F5F7F4F0E94761640E0BE016F5F7F4F1AC0E42FF0E0EE0F65
:202EE000FF1F6701CE0EDF1EE60FF71FD8011E962D913C911F9780819181281B390BF60109
:202F000080819181820F931F918380834F5FD80118968C91481708F3A096E9E00C9462187F
:202F2000CF93DF93EC018A819B81009711F00E942E0B8E819F81009711F00E942E0B88818B
:202F40009981009711F00E942E0B8C819D81009711F00E942E0BDF91CF910895629FD00107
:202F6000739FF001829FE00DF11D649FE00DF11D929FF00D839FF00D749FF00D659FF00DD6
:202F80009927729FB00DE11DF91F639FB00DE11DF91FBD01CF0111240895991B79E004C087
:202FA000991F961708F0961B881F7A95C9F780950895AA1BBB1B51E107C0AA1FBB1FA617E7
:202FC000B70710F0A61BB70B881F991F5A95A9F780959095BC01CD01089597FB092E07266A
:202FE0000AD077FD04D0E5DF06D000201AF4709561957F4F0895F6F7909581959F4F0895CE
:20300000A1E21A2EAA1BBB1BFD010DC0AA1FBB1FEE1FFF1FA217B307E407F50720F0A21B8A
:20302000B30BE40BF50B661F771F881F991F1A9469F760957095809590959B01AC01BD0120
:20304000CF01089597FB092E05260ED057FD04D0D7DF0AD0001C38F45095409530952195FC
:203060003F4F4F4F5F4F0895F6F790958095709561957F4F8F4F9F4F08952F923F924F920D
:203080005F926F927F928F929F92AF92BF92CF92DF92EF92FF920F931F93CF93DF93CDB7B9
:2030A000DEB7CA1BDB0B0FB6F894DEBF0FBECDBF09942A88398848885F846E847D848C84A3
:2030C0009B84AA84B984C884DF80EE80FD800C811B81AA81B981CE0FD11D0FB6F894DEBF89
:2030E0000FBECDBFED010895EE0FFF1F0590F491E02D099413E0C8E8D3E004C0FE010E9452
:2031000076182296CA38D107C9F7F894FFCF53756363657373004F352063313600420049A3
:20312000522D2000430020000102030405FF4D6F746F72730050726573732041004C2073AE
:203140006C6F770050726573732042004C20666173740050726573732043004C2D20736CAC
:203160006F77004C2D2066617374005220736C6F770052206661737400522D20736C6F7767
:2031800000522D2066617374005472696D706F7400202020004100206D5600507265737362
:2031A00020410067333200506F7765722000526573657420005044302F504431002020207A
:2031C0000049522D0020204300633332005265642020003E63333200477265656E006D56C7
:2031E00000010AD2094C09900955080708A40613011B01390124012C01330141010720008C
:2032000000010203030405FF01040400D007F4010F0020202020202020200E0F1011122049
:0632200000910200000015
:00000001FF
